{
  "_format": "hh-sol-artifact-1",
  "contractName": "CharityRegistry",
  "sourceName": "contracts/CharityRegistry.sol",
  "abi": [
    {
      "inputs": [],
      "stateMutability": "nonpayable",
      "type": "constructor"
    },
    {
      "anonymous": false,
      "inputs": [
        {
          "indexed": true,
          "internalType": "uint256",
          "name": "charityId",
          "type": "uint256"
        },
        {
          "indexed": false,
          "internalType": "string",
          "name": "name",
          "type": "string"
        },
        {
          "indexed": false,
          "internalType": "string",
          "name": "mission",
          "type": "string"
        },
        {
          "indexed": false,
          "internalType": "string",
          "name": "website",
          "type": "string"
        },
        {
          "indexed": false,
          "internalType": "bool",
          "name": "active",
          "type": "bool"
        },
        {
          "indexed": false,
          "internalType": "address payable",
          "name": "wallet",
          "type": "address"
        }
      ],
      "name": "CharityAdded",
      "type": "event"
    },
    {
      "anonymous": false,
      "inputs": [
        {
          "indexed": true,
          "internalType": "uint256",
          "name": "charityId",
          "type": "uint256"
        },
        {
          "indexed": false,
          "internalType": "string",
          "name": "name",
          "type": "string"
        },
        {
          "indexed": false,
          "internalType": "string",
          "name": "mission",
          "type": "string"
        },
        {
          "indexed": false,
          "internalType": "string",
          "name": "website",
          "type": "string"
        },
        {
          "indexed": false,
          "internalType": "bool",
          "name": "active",
          "type": "bool"
        },
        {
          "indexed": false,
          "internalType": "address payable",
          "name": "wallet",
          "type": "address"
        }
      ],
      "name": "CharityUpdated",
      "type": "event"
    },
    {
      "anonymous": false,
      "inputs": [
        {
          "indexed": true,
          "internalType": "uint256",
          "name": "charityId",
          "type": "uint256"
        },
        {
          "indexed": false,
          "internalType": "address",
          "name": "donor",
          "type": "address"
        },
        {
          "indexed": false,
          "internalType": "uint256",
          "name": "amount",
          "type": "uint256"
        }
      ],
      "name": "DonationMade",
      "type": "event"
    },
    {
      "inputs": [
        {
          "internalType": "string",
          "name": "name",
          "type": "string"
        },
        {
          "internalType": "string",
          "name": "mission",
          "type": "string"
        },
        {
          "internalType": "string",
          "name": "website",
          "type": "string"
        },
        {
          "internalType": "bool",
          "name": "active",
          "type": "bool"
        },
        {
          "internalType": "address payable",
          "name": "wallet",
          "type": "address"
        }
      ],
      "name": "addCharity",
      "outputs": [],
      "stateMutability": "nonpayable",
      "type": "function"
    },
    {
      "inputs": [
        {
          "internalType": "uint256",
          "name": "",
          "type": "uint256"
        }
      ],
      "name": "charities",
      "outputs": [
        {
          "internalType": "string",
          "name": "name",
          "type": "string"
        },
        {
          "internalType": "string",
          "name": "mission",
          "type": "string"
        },
        {
          "internalType": "string",
          "name": "website",
          "type": "string"
        },
        {
          "internalType": "uint256",
          "name": "totalDonation",
          "type": "uint256"
        },
        {
          "internalType": "bool",
          "name": "active",
          "type": "bool"
        },
        {
          "internalType": "address payable",
          "name": "wallet",
          "type": "address"
        }
      ],
      "stateMutability": "view",
      "type": "function"
    },
    {
      "inputs": [],
      "name": "charityIdCounter",
      "outputs": [
        {
          "internalType": "uint256",
          "name": "",
          "type": "uint256"
        }
      ],
      "stateMutability": "view",
      "type": "function"
    },
    {
      "inputs": [
        {
          "internalType": "uint256",
          "name": "",
          "type": "uint256"
        }
      ],
      "name": "charityIds",
      "outputs": [
        {
          "internalType": "uint256",
          "name": "",
          "type": "uint256"
        }
      ],
      "stateMutability": "view",
      "type": "function"
    },
    {
      "inputs": [
        {
          "internalType": "string",
          "name": "_a",
          "type": "string"
        },
        {
          "internalType": "string",
          "name": "_b",
          "type": "string"
        }
      ],
      "name": "compareStrings",
      "outputs": [
        {
          "internalType": "bool",
          "name": "",
          "type": "bool"
        }
      ],
      "stateMutability": "pure",
      "type": "function"
    },
    {
      "inputs": [
        {
          "internalType": "uint256",
          "name": "charityId",
          "type": "uint256"
        }
      ],
      "name": "donate",
      "outputs": [],
      "stateMutability": "payable",
      "type": "function"
    },
    {
      "inputs": [],
      "name": "owner",
      "outputs": [
        {
          "internalType": "address",
          "name": "",
          "type": "address"
        }
      ],
      "stateMutability": "view",
      "type": "function"
    },
    {
      "inputs": [
        {
          "internalType": "uint256",
          "name": "charityId",
          "type": "uint256"
        },
        {
          "internalType": "string",
          "name": "name",
          "type": "string"
        },
        {
          "internalType": "string",
          "name": "mission",
          "type": "string"
        },
        {
          "internalType": "string",
          "name": "website",
          "type": "string"
        },
        {
          "internalType": "bool",
          "name": "active",
          "type": "bool"
        },
        {
          "internalType": "address payable",
          "name": "wallet",
          "type": "address"
        }
      ],
      "name": "updateCharity",
      "outputs": [],
      "stateMutability": "nonpayable",
      "type": "function"
    }
  ],
  "bytecode": "0x608060405234801561001057600080fd5b5033600360006101000a81548173ffffffffffffffffffffffffffffffffffffffff021916908373ffffffffffffffffffffffffffffffffffffffff16021790555061177f806100616000396000f3fe60806040526004361061007b5760003560e01c8063e00909e61161004e578063e00909e61461014e578063f14faf6f14610177578063f774ffda14610193578063fb709d2e146101be5761007b565b80638a448e64146100805780638da5cb5b146100bd578063bed34bba146100e8578063c8e22ed714610125575b600080fd5b34801561008c57600080fd5b506100a760048036038101906100a29190610d92565b610200565b6040516100b49190610dce565b60405180910390f35b3480156100c957600080fd5b506100d2610224565b6040516100df9190610e2a565b60405180910390f35b3480156100f457600080fd5b5061010f600480360381019061010a9190610f8b565b61024a565b60405161011c919061101e565b60405180910390f35b34801561013157600080fd5b5061014c600480360381019061014791906110a3565b6102ae565b005b34801561015a57600080fd5b5061017560048036038101906101709190611184565b6105e6565b005b610191600480360381019061018c9190610d92565b610825565b005b34801561019f57600080fd5b506101a8610a9e565b6040516101b59190610dce565b60405180910390f35b3480156101ca57600080fd5b506101e560048036038101906101e09190610d92565b610aa4565b6040516101f7969594939291906112ea565b60405180910390f35b6001818154811061021057600080fd5b906000526020600020016000915090505481565b600360009054906101000a900473ffffffffffffffffffffffffffffffffffffffff1681565b6000808360405160200161025e919061139c565b604051602081830303815290604052805190602001209050600083604051602001610289919061139c565b6040516020818303038152906040528051906020012090508082149250505092915050565b600360009054906101000a900473ffffffffffffffffffffffffffffffffffffffff1673ffffffffffffffffffffffffffffffffffffffff163373ffffffffffffffffffffffffffffffffffffffff161461033e576040517f08c379a000000000000000000000000000000000000000000000000000000000815260040161033590611425565b60405180910390fd5b85600254811115610384576040517f08c379a000000000000000000000000000000000000000000000000000000000815260040161037b90611491565b60405180910390fd5b61043a60008083815260200190815260200160002060000180546103a7906114e0565b80601f01602080910402602001604051908101604052809291908181526020018280546103d3906114e0565b80156104205780601f106103f557610100808354040283529160200191610420565b820191906000526020600020905b81548152906001019060200180831161040357829003601f168201915b50505050506040518060200160405280600081525061024a565b1561047a576040517f08c379a00000000000000000000000000000000000000000000000000000000081526004016104719061155e565b60405180910390fd5b60008082815260200190815260200160002060040160009054906101000a900460ff166104dc576040517f08c379a00000000000000000000000000000000000000000000000000000000081526004016104d3906115ca565b60405180910390fd5b600080600089815260200190815260200160002090508681600001908051906020019061050a929190610ca5565b5085816001019080519060200190610523929190610ca5565b508481600201908051906020019061053c929190610ca5565b50838160040160006101000a81548160ff021916908315150217905550828160040160016101000a81548173ffffffffffffffffffffffffffffffffffffffff021916908373ffffffffffffffffffffffffffffffffffffffff160217905550877fcabf5378f70b6fa91dadb4f722ce9ce8047636b7bed47d649058a7f2181d30fb88888888886040516105d49594939291906115ea565b60405180910390a25050505050505050565b600360009054906101000a900473ffffffffffffffffffffffffffffffffffffffff1673ffffffffffffffffffffffffffffffffffffffff163373ffffffffffffffffffffffffffffffffffffffff1614610676576040517f08c379a000000000000000000000000000000000000000000000000000000000815260040161066d90611425565b60405180910390fd5b60006002600081548092919061068b90611681565b9190505590506040518060c001604052808781526020018681526020018581526020016000815260200184151581526020018373ffffffffffffffffffffffffffffffffffffffff168152506000808381526020019081526020016000206000820151816000019080519060200190610705929190610ca5565b506020820151816001019080519060200190610722929190610ca5565b50604082015181600201908051906020019061073f929190610ca5565b506060820151816003015560808201518160040160006101000a81548160ff02191690831515021790555060a08201518160040160016101000a81548173ffffffffffffffffffffffffffffffffffffffff021916908373ffffffffffffffffffffffffffffffffffffffff1602179055509050506001819080600181540180825580915050600190039060005260206000200160009091909190915055807f4e60d00033c04c1f99296ca733c699390b575b781e2783fdc312c71be62af41387878787876040516108159594939291906115ea565b60405180910390a2505050505050565b8060025481111561086b576040517f08c379a000000000000000000000000000000000000000000000000000000000815260040161086290611491565b60405180910390fd5b610921600080838152602001908152602001600020600001805461088e906114e0565b80601f01602080910402602001604051908101604052809291908181526020018280546108ba906114e0565b80156109075780601f106108dc57610100808354040283529160200191610907565b820191906000526020600020905b8154815290600101906020018083116108ea57829003601f168201915b50505050506040518060200160405280600081525061024a565b15610961576040517f08c379a00000000000000000000000000000000000000000000000000000000081526004016109589061155e565b60405180910390fd5b60008082815260200190815260200160002060040160009054906101000a900460ff166109c3576040517f08c379a00000000000000000000000000000000000000000000000000000000081526004016109ba906115ca565b60405180910390fd5b600080600084815260200190815260200160002090508060040160019054906101000a900473ffffffffffffffffffffffffffffffffffffffff1673ffffffffffffffffffffffffffffffffffffffff166108fc349081150290604051600060405180830381858888f19350505050158015610a43573d6000803e3d6000fd5b5034816003016000828254610a5891906116ca565b92505081905550827fe555da28bdb778f65d22794d88927ebaeca03f7de9d1b7d39245bc8fb5ca078a3334604051610a91929190611720565b60405180910390a2505050565b60025481565b6000602052806000526040600020600091509050806000018054610ac7906114e0565b80601f0160208091040260200160405190810160405280929190818152602001828054610af3906114e0565b8015610b405780601f10610b1557610100808354040283529160200191610b40565b820191906000526020600020905b815481529060010190602001808311610b2357829003601f168201915b505050505090806001018054610b55906114e0565b80601f0160208091040260200160405190810160405280929190818152602001828054610b81906114e0565b8015610bce5780601f10610ba357610100808354040283529160200191610bce565b820191906000526020600020905b815481529060010190602001808311610bb157829003601f168201915b505050505090806002018054610be3906114e0565b80601f0160208091040260200160405190810160405280929190818152602001828054610c0f906114e0565b8015610c5c5780601f10610c3157610100808354040283529160200191610c5c565b820191906000526020600020905b815481529060010190602001808311610c3f57829003601f168201915b5050505050908060030154908060040160009054906101000a900460ff16908060040160019054906101000a900473ffffffffffffffffffffffffffffffffffffffff16905086565b828054610cb1906114e0565b90600052602060002090601f016020900481019282610cd35760008555610d1a565b82601f10610cec57805160ff1916838001178555610d1a565b82800160010185558215610d1a579182015b82811115610d19578251825591602001919060010190610cfe565b5b509050610d279190610d2b565b5090565b5b80821115610d44576000816000905550600101610d2c565b5090565b6000604051905090565b600080fd5b600080fd5b6000819050919050565b610d6f81610d5c565b8114610d7a57600080fd5b50565b600081359050610d8c81610d66565b92915050565b600060208284031215610da857610da7610d52565b5b6000610db684828501610d7d565b91505092915050565b610dc881610d5c565b82525050565b6000602082019050610de36000830184610dbf565b92915050565b600073ffffffffffffffffffffffffffffffffffffffff82169050919050565b6000610e1482610de9565b9050919050565b610e2481610e09565b82525050565b6000602082019050610e3f6000830184610e1b565b92915050565b600080fd5b600080fd5b6000601f19601f8301169050919050565b7f4e487b7100000000000000000000000000000000000000000000000000000000600052604160045260246000fd5b610e9882610e4f565b810181811067ffffffffffffffff82111715610eb757610eb6610e60565b5b80604052505050565b6000610eca610d48565b9050610ed68282610e8f565b919050565b600067ffffffffffffffff821115610ef657610ef5610e60565b5b610eff82610e4f565b9050602081019050919050565b82818337600083830152505050565b6000610f2e610f2984610edb565b610ec0565b905082815260208101848484011115610f4a57610f49610e4a565b5b610f55848285610f0c565b509392505050565b600082601f830112610f7257610f71610e45565b5b8135610f82848260208601610f1b565b91505092915050565b60008060408385031215610fa257610fa1610d52565b5b600083013567ffffffffffffffff811115610fc057610fbf610d57565b5b610fcc85828601610f5d565b925050602083013567ffffffffffffffff811115610fed57610fec610d57565b5b610ff985828601610f5d565b9150509250929050565b60008115159050919050565b61101881611003565b82525050565b6000602082019050611033600083018461100f565b92915050565b61104281611003565b811461104d57600080fd5b50565b60008135905061105f81611039565b92915050565b600061107082610de9565b9050919050565b61108081611065565b811461108b57600080fd5b50565b60008135905061109d81611077565b92915050565b60008060008060008060c087890312156110c0576110bf610d52565b5b60006110ce89828a01610d7d565b965050602087013567ffffffffffffffff8111156110ef576110ee610d57565b5b6110fb89828a01610f5d565b955050604087013567ffffffffffffffff81111561111c5761111b610d57565b5b61112889828a01610f5d565b945050606087013567ffffffffffffffff81111561114957611148610d57565b5b61115589828a01610f5d565b935050608061116689828a01611050565b92505060a061117789828a0161108e565b9150509295509295509295565b600080600080600060a086880312156111a05761119f610d52565b5b600086013567ffffffffffffffff8111156111be576111bd610d57565b5b6111ca88828901610f5d565b955050602086013567ffffffffffffffff8111156111eb576111ea610d57565b5b6111f788828901610f5d565b945050604086013567ffffffffffffffff81111561121857611217610d57565b5b61122488828901610f5d565b935050606061123588828901611050565b92505060806112468882890161108e565b9150509295509295909350565b600081519050919050565b600082825260208201905092915050565b60005b8381101561128d578082015181840152602081019050611272565b8381111561129c576000848401525b50505050565b60006112ad82611253565b6112b7818561125e565b93506112c781856020860161126f565b6112d081610e4f565b840191505092915050565b6112e481611065565b82525050565b600060c082019050818103600083015261130481896112a2565b9050818103602083015261131881886112a2565b9050818103604083015261132c81876112a2565b905061133b6060830186610dbf565b611348608083018561100f565b61135560a08301846112db565b979650505050505050565b600081905092915050565b600061137682611253565b6113808185611360565b935061139081856020860161126f565b80840191505092915050565b60006113a8828461136b565b915081905092915050565b7f4f6e6c7920746865206f776e65722063616e20616464206e657720636861726960008201527f746965732e000000000000000000000000000000000000000000000000000000602082015250565b600061140f60258361125e565b915061141a826113b3565b604082019050919050565b6000602082019050818103600083015261143e81611402565b9050919050565b7f496e76616c696420636861726974792049440000000000000000000000000000600082015250565b600061147b60128361125e565b915061148682611445565b602082019050919050565b600060208201905081810360008301526114aa8161146e565b9050919050565b7f4e487b7100000000000000000000000000000000000000000000000000000000600052602260045260246000fd5b600060028204905060018216806114f857607f821691505b6020821081141561150c5761150b6114b1565b5b50919050565b7f4368617269747920646f6573206e6f7420657869737400000000000000000000600082015250565b600061154860168361125e565b915061155382611512565b602082019050919050565b600060208201905081810360008301526115778161153b565b9050919050565b7f43686172697479206973206e6f74206163746976650000000000000000000000600082015250565b60006115b460158361125e565b91506115bf8261157e565b602082019050919050565b600060208201905081810360008301526115e3816115a7565b9050919050565b600060a082019050818103600083015261160481886112a2565b9050818103602083015261161881876112a2565b9050818103604083015261162c81866112a2565b905061163b606083018561100f565b61164860808301846112db565b9695505050505050565b7f4e487b7100000000000000000000000000000000000000000000000000000000600052601160045260246000fd5b600061168c82610d5c565b91507fffffffffffffffffffffffffffffffffffffffffffffffffffffffffffffffff8214156116bf576116be611652565b5b600182019050919050565b60006116d582610d5c565b91506116e083610d5c565b9250827fffffffffffffffffffffffffffffffffffffffffffffffffffffffffffffffff0382111561171557611714611652565b5b828201905092915050565b60006040820190506117356000830185610e1b565b6117426020830184610dbf565b939250505056fea264697066735822122033821ae381979b153153206ef4531dae8fd431d25288b13be4a654fbb5af406464736f6c63430008090033",
  "linkReferences": {},
  "deployedLinkReferences": {}
}